:020000041000EA
:1000000000B5324B212058609868022188439860DF
:10001000D860186158612E4B002199600221596106
:100020000121F02299502B49196001219960352056
:1000300000F044F80222904214D00621196600F024
:1000400034F8196E01211966002018661A6600F04E
:100050002CF8196E196E196E052000F02FF8012189
:100060000842F9D1002199601B49196000215960AB
:100070001A491B48016001219960EB211966A021F2
:10008000196600F012F800219960164914480160C1
:100090000121996001BC002800D000471248134993
:1000A000086003C880F30888084703B5996A0420EC
:1000B0000142FBD001200142F8D103BD02B5186610
:1000C0001866FFF7F2FF186E186E02BD00000240BE
:1000D000000000180000070000035F00212200005C
:1000E000F4000018222000A00001001008ED00E03C
:1000F00000000000000000000000000074B24E7A12
:1001000000200420F7010010C3010010C5010010F9
:10011000C1010010C1010010C1010010C101001097
:10012000C1010010C1010010C1010010C701001081
:10013000C1010010C1010010C9010010CB01001065
:10014000CD010010CD010010CD010010CD01001037
:10015000CD010010CD010010CD010010CD01001027
:10016000CD010010CD010010CD010010CD01001017
:10017000CD010010CD010010CD010010CD01001007
:10018000CD010010CD010010CD010010CD010010F7
:10019000CD010010CD010010CD010010CD010010E7
:1001A000CD010010CD010010CD010010CD010010D7
:1001B000CD010010CD010010CD010010CD010010C7
:1001C00000BE00BE00BE00BE00BE00BE00F04BF888
:1001D000103800BEF2EB8871440A0110640A011065
:1001E0003402001090A31AE700202149086006C8D5
:1001F00081F3088810471F48006800282FD10DA4FC
:100200000ECC002902D000F012F8F9E71A491B4A77
:10021000002000E001C19142FCD1194988471949E9
:1002200088471949884700BEFDE701C901C29A42C3
:10023000FBD37047640A0110C000002014050020A1
:10024000B80E01100000042000000420B80E0110B8
:1002500000100420001004200000000070470B482C
:1002600008F060FE0047EFF30580C0B27047000061
:1002700008ED00E0000000D018050020AC76022058
:10028000F17700100D030010E178001057560000C0
:1002900006005250ABB360530008011006005250E4
:1002A000861C030210080110060052505422A29D21
:1002B0002008011005005250DE65F468B80E0110E8
:1002C000F8B5C04610B5064C2378002B07D1054B76
:1002D000002B02D0044800E000BF0123237010BDB2
:1002E0002008002000000000E0CD0010044B10B5F5
:1002F000002B03D00349044800E000BF10BDC046F6
:100300000000000024080020E0CD001010B500F02F
:1003100001F8FCE710B505F039FD00F071F902F0C5
:1003200065FA00F029F8C8210420890002F086FB54
:10033000042005F001FA0421042002F08DFA04F0F3
:100340003FFD04F0B3FD0121122004F051FF05F040
:10035000A7F8FCE70123D02283401206002901D030
:10036000536170479361FCE7D0231B065B68C34071
:10037000012018407047C046F8B5CE4647460421D4
:1003800080B5192005F018FF0421002005F014FFA6
:100390000421012005F010FF0423604D604C2B6008
:1003A0000023604E05202360336005F05DFE5E494A
:1003B00008F012FE09F074FC071C09F099FCC3B2A6
:1003C0001800984609F072FC011C381C09F047FC23
:1003D0008321C90509F05DFC09F08AFC4346C0B2DF
:1003E0001B011843514B58650520276805F03CFE5A
:1003F0004D4908F0F1FD09F053FC804609F078FC06
:10040000C3B21800994609F051FC011C404609F09E
:1004100026FC8321C90509F03CFC09F069FC4B4628
:10042000424A1B019446C0B21843BB00DB199B0033
:10043000634458600520376805F016FE3A4908F015
:10044000CBFD09F02DFC804609F052FCC3B2180028
:10045000994609F02BFC011C404609F000FC832161
:10046000C90509F016FC09F043FC4B462F4A1B0155
:100470009446C0B21843BB00DB199B00634458602C
:100480002B689F00FF18FF23BF00BD182B61236856
:100490009800C018800084181300E122D200904612
:1004A000226131688A00521821499200D6188C4680
:1004B00043466744336139688C46FF21634609042B
:1004C0005940090C0B04802149010F433B60184B34
:1004D0009C4643466044076808437B401B041B0C52
:1004E0000360E12062441368C00458400123000CFB
:1004F0000A430004106018002A680D4390432860E6
:10050000180022680C4390432060326831439343C3
:100510000B60C0BCB946B046F8BDC046507602205C
:10052000901D0020941D002040420F000000054057
:100530000C0005400F4B1A6893009B180E4A9B0055
:100540009446634419680D4A4A40802112044901C7
:100550000B43120C1A600A4B1A6893009B189B00FD
:1005600063441868074A0B434240120C12041A6095
:100570007047C046901D00200C000540C6020000D8
:10058000941D00200000AE06184B194A1B6830B5B8
:100590009900C918174B89009C4661449446830012
:1005A000C3185B000C68C3186344634080241B04B9
:1005B000640121431B0C0B600F4B02031B68121AD2
:1005C0009900C9180B4B89009C460C4B61449C4612
:1005D00092008218920080180D68604403046B40FA
:1005E0001B0C1B0421430B6030BDC046901D002036
:1005F000C60200000C000540941D0020AE0600005D
:10060000F0B5C64600B509F0E5FD0F2005F004FE83
:10061000D024802324061B026362082005F0FCFD21
:100620008023802680275B006362B6010D2005F0E1
:10063000F3FDBF006662092005F0EEFD6762102041
:1006400005F0EAFD80235B0263621120984605F005
:10065000E3FD802380259B02A362ED03162005F0B5
:10066000DBFD002265620121112005F0BDFD43463E
:100670000B4963610B486761666165610CF078FA4C
:1006800001210A2005F098FD01210B2005F094FDC1
:1006900001210C2005F090FD002080BCB846F0BD83
:1006A000C0E1E4000000044010B584B06B460F24A4
:1006B0006C44D91D08700123220003480CF080FB14
:1006C000207804B010BDC0460000044010B582B0D0
:1006D0006B46DC1D991D08700123220002480CF0B6
:1006E0006FFB207802B010BD0000044010B506F08A
:1006F000E5FB10BD7047C046030010B50120002B7C
:1007000000D010BD05F04AF90028FAD005F074F8C1
:10071000FF2005F06DF805F071F80120F1E7C04603
:100720000020704770B50D00040011001A1E11D092
:100730000120002C00D070BD280005F00DFA002823
:10074000F9D005F059F8FF2005F052F805F056F8F9
:100750000120F0E70420EEE770B50D000400110061
:100760001A1E0AD00120002C00D070BD280005F010
:1007700063FA431E9841C0B2F7E70420F5E7C0468C
:1007800070B514000125002808D102290FD007D820
:10079000002911D005F0CAF800252060280070BD9E
:1007A00004250329FAD1082300251380F6E78023C6
:1007B0009B0000251380F1E700211620FFF7CAFDFA
:1007C00005F01EF8431E98410121C5B21620FFF71F
:1007D000C1FDE3E700207047F0B5DE4657464E46C0
:1007E0004546E0B516008A4C0122A544310002A816
:1007F00001F014FD874C884F1E223B00210002A807
:1008000001F0D6FD638902A80093A389A58A01930C
:10081000638A9A46E38A9B46238B9846A38B994624
:1008200001F0F4FD4B460020182B07D153467B4ABC
:100830002D041D4313880130AB4208D08D239B004B
:100840009D44F0BCBB46B246A946A046F0BD434617
:1008500059461B04194353888B468B42EED1012223
:10086000310002A801F0DAFC019B21001A04009B70
:1008700002A81A433B0001F09BFD694B1B78522BE9
:100880006DD15B46002B00D1BEE000239846654B3E
:100890000093B4235B009946A144B4223B0021009D
:1008A000520002A801F084FDB4223B0049465200E8
:1008B00002A801F07DFD002D1DD0434642461B01DC
:1008C0009B1A1B019C46002362465900591889B2A5
:1008D0009818621896785278615CF6089208F602C9
:1008E0005201C90832430A430133009940009BB2C8
:1008F0000A52AB42E8D3434601339BB298465B456C
:10090000CBD30021002003F0A5FD01210820FFF733
:1009100021FD00210920FFF71DFD434943480CF04C
:10092000A3F99623009E9B02F5183088000AFFF772
:10093000BBFE30780236FFF7B7FEB542F5D1012194
:100940000920FFF707FD02A801F060FD384937488C
:100950000CF08AF93748FFF7C9FE01206EE7002145
:10096000002003F077FD304930480CF07DF95B46FC
:10097000002BE8D0002399466933FF339A46294B70
:10098000A2449846B4223B002100520002A801F084
:100990000FFDB4223B005146520002A801F008FDB1
:1009A000B423B4229B00E11852003B0002A801F0DE
:1009B000FFFC8723B422DB00E11852003B0002A8B1
:1009C00001F0F6FC002D18D000267200B11889B293
:1009D000631898785B78C0089B085B01C0021843D5
:1009E00084466346605C0136C00818434346B6B28D
:1009F000985201F0AFFFAE42E7D34B4601339BB2B2
:100A000099465B45BED39EE7064B009379E7C04607
:100A1000CCFDFFFFF80E00203C08002018760220D5
:100A200010040020001E002080C3C9010000044003
:100A3000C0C62D00DC05000070B5074D0100012285
:100A4000280001F0EBFB431E98414400280001F010
:100A5000DDFC200070BDC04660080020F0B54646B1
:100A6000D6464F46C0B54F4E0400884601003000C0
:100A700001F038FD0023994600287ED120000CF0BB
:100A80003DF9494B050010279A46484C210030009B
:100A900001F06CFD002870D1637A002B6DD02E2BF5
:100AA000F4D0237A1F42F1D16B1CE218527A2E2A1D
:100AB00048D0AA1CA118497A2E2966D0EB1CE1184F
:100AC000497A2E2966D02A1DA118497A2E295CD090
:100AD0006B1DE118497A2E295CD0AA1DA118497A0C
:100AE0002E2952D0EB1DE118497A2E2952D002321C
:100AF000A118497A2E2948D00233E118497A2E29C3
:100B000048D00232A118497A2E293ED00233E1188A
:100B1000497A2E293ED00232A118497A2E2934D0A2
:100B200029000D3163185B7A2E2B33D02B000E3346
:100B3000E218527A2E2A32D01D000133E218527A7E
:100B40002E2AF9D14B46182B1DD86319DA7A0025C5
:100B5000422A9BD11A7B4D2A98D15B7B502B95D191
:100B60004B46414622009B0058580932514608F036
:100B700095F901239C46E14488E74846E0BCBA4623
:100B8000B146A846F0BD002580E71D004B46182B56
:100B9000F9D8DAE74B461500182BF4D8D5E70D0045
:100BA000D0E7C04644080020E0CD0010880A0020AD
:100BB0000A00036930B50932002B7CD043691878EC
:100BC000202805D0052800D1E0300A0048720A32FA
:100BD00058781400202804D0052800D1E030541C97
:100BE00010709A782000202A04D0052A00D1E03223
:100BF000601C2270DC780200202C04D0052C00D16F
:100C0000E034421C04701C791000202C04D0052C08
:100C100000D1E034501C14705C790200202C04D008
:100C2000052C00D1E034421C04709C791000202C6B
:100C300004D0052C00D1E034501C1470DC79020083
:100C4000202C04D0052C00D1E034421C0470187A0A
:100C50001400202806D0052800D1E0302E24507042
:100C60001470941C5A7A2000202A04D0052A00D13E
:100C7000E032601C22709C7A0200202C04D0052CEB
:100C800000D1E034421C0470D87A08725C7F187F6F
:100C90009D7F24020443D87F2D042C43000620436B
:100CA0000860587E1C7E000220438880987DDB7D92
:100CB0001B020343CB800023137030BD002370B5AB
:100CC0000371013B04000D00C3624B1C09D00A00F4
:100CD0002100012340783031FFF724FD00281FD187
:100CE000E562124BE25A124B9A421BD12200663245
:100CF000538811881B040B430E4A1B021B0A9342A4
:100D000012D08223E25A0C4B82349C466088000445
:100D100010430002000A6044431E9841C0B270BDF7
:100D20000320FCE70220FAE70020F8E72E0200008B
:100D300055AA000046415400BABEABFFF0B5C64606
:100D4000C66A04000D0000B58E4235D00700037955
:100D50003037002B0BD101232A0039006078FFF7D0
:100D6000E1FC002826D1E56280BCB846F0BD012335
:100D7000320039004078FFF7EFFC00281AD1226AD0
:100D8000A3692071B21A9A42E5D2E2789046012A0C
:100D900001D8E0E7A369F618320001233900607832
:100DA000FFF7DAFC01235B429C46E0444346012BFB
:100DB000F0D1D0E70120D7E70020D5E7F0B54546D0
:100DC000DE4657464E460023E0B50C68150083B05A
:100DD0000360002C00D1C4E02378303B082B00D8FE
:100DE000B6E0C84B1C68002C00D11DE123780460DC
:100DF000002B0FD06078FFF793FCC3070AD4002DB7
:100E000000D10DE104231E000640034200D1FFE0A3
:100E10000A26FDE0002300202380FFF76DFCC307B6
:100E200000D5FFE0002D01D04307F1D400212000C0
:100E3000FFF744FF0600012800D194E0032800D109
:100E40003AE10025002800D0E1E022003B32117891
:100E5000537880221B0292000B43934200D0D6E0CD
:100E60004623E65A002E00D1666D4023A661E25C5F
:100E7000531EE270012B00D9C9E03D23E75CA77047
:100E8000002F00D1C3E07B1E1F4200D0BFE04123F2
:100E9000E15C230041335B781B020B4398462381BE
:100EA0001B0700D0B3E04323E15C230043335B78AE
:100EB0001B020B4300D1236DE18F8B46002900D12B
:100EC000A5E072431100019242468A4612095A4433
:100ED0009244534500D29AE052469B1A99463900F3
:100EE000180008F079F8B94500D290E0864B984296
:100EF00000D8E3E0854B984200D821E15B46EB182F
:100F000023625346EB18A362434602306061E561F9
:100F1000002B7CD1E36D800063627D4B9C46604476
:100F2000400A864273D301235B422361E36081332D
:100F30006371203BE35A012B00D182E00323754A01
:100F400023701388002601339BB21380E3805FE097
:100F500062783A2A00D044E702340C60002B00D1BA
:100F60003FE70B2654E0F9235B00E35C0027002BEE
:100F70000CD0FB235B00E118E25C4B788F781B02FE
:100F80001A43CB783F0417431B061F43624B0025CF
:100F9000E35C002B0BD0614BE2185178E55C090251
:100FA00093782943D5781B0419432D060D4300225D
:100FB0005B4B9046E35C002B0CD05A4BE018427818
:100FC000E15C120283781143C2781B040B431206C2
:100FD0001A4390460022544B9146E35C002B0CD000
:100FE000524BE0184278E15C120283781143C278D8
:100FF0001B040B4312061A439146002F45D1002DC6
:101000004BD14346002B4FD14B46002B0ED10D2622
:10101000300003B0F0BCBB46B246A946A046F0BDC6
:101020000026F5E70326F3E70C26F1E74946200002
:10103000FFF744FE4D46002800D106E70328E7D01D
:10104000E5E72000691CFFF779FE002800D075E76E
:1010500043466371364BE25A364B9A4200D06DE7F5
:10106000354B226B9A4200D068E785229200334BC1
:10107000A2589A4200D061E7862387229B00920003
:10108000E358A2582361E26058E739002000FFF7D7
:1010900015FE0028B3D13D00D7E629002000FFF758
:1010A0000DFE0028ADD1D0E641462000FFF706FE38
:1010B00045460028A8D1C8E60126A9E75B46414677
:1010C000EB18821CE561554462612362A562002928
:1010D0009DD0019950008C466344636201238018BF
:1010E00040081A4080180A4A94466044400A8642E2
:1010F00000D28CE7012252422261E26081326271A9
:101100001DE7C04640080020F50F0000F5FF000075
:10111000FF01000096760220020200000602000095
:101120001202000016020000220200002602000047
:101130002E02000055AA00005252614172724161B4
:101140005B464246EB180230E5615544606123621C
:10115000A562002A00D15AE7019A400094466344F0
:1011600063620223BFE7C046F0B5C64607780400B5
:101170000D0000B5022F08D0032F3FD0012F17D04C
:101180000120404280BCB846F0BD036A090A9C4673
:101190006144FFF7D3FD0028F2D1FF216D00490023
:1011A0000D4064193034637820781B021843E9E756
:1011B000036A4E089C467618710A6144FFF7BEFD2B
:1011C0000028DDD1F305DB0DE31830331B78013641
:1011D0009846236A710A9C4620006144FFF7AEFDE1
:1011E0000028CDD14346F605F60DA41930342078F9
:1011F000000218432F421FD00009C3E7036AC90940
:101200009C466144FFF79AFD0028B9D1FE21AD004C
:1012100049000D402B003033E318D8789A786419D0
:1012200012040006303410435B7822781B0210430E
:10123000184300010009A5E70005000DA2E7C0461C
:10124000F8B54E46DE46574645469B468468C36819
:10125000E0B51B1B06000F009946934200D991464A
:101260004B46002B00D190E02200D305DD0D002B72
:1012700041D13368500A99784C1E0440E4B2002CE6
:1012800000D184E070695A690238023A904200D372
:101290008CE0996A9A788C4650436044002800D1CB
:1012A00084E080468021A0448900894500D386E0FF
:1012B000B26990451AD035004024B17928350C42E6
:1012C0000BD0587829000123FFF746FA002800D0F8
:1012D000A0E0B379A343B371336858784246012341
:1012E0002900FFF71FFA002800D093E04346B361BE
:1012F000B368DD05ED0D80239B00591B494500D9DE
:10130000494602242B00A4462933F3180634FB1A5D
:101310009C459B41A446481E2A008445A44128328E
:101320005B426442B2181C4200D177E03B00134399
:101330009B0700D072E000238C08A400D558FD5014
:101340000433A342FAD103230C009C432300121957
:10135000C01A3C198B4209D013782370002805D09D
:1013600053786370012801D09378A370B36858460E
:10137000CA185B461B68B2605B1803604B465B1A79
:1013800099467F18002B00D06FE7002011E0002A5B
:1013900032D13069012809D9431C3BD033687061D0
:1013A0005A690238023A904200D272E702230220C0
:1013B000F371F0BCBB46B246A946A046F8BD49460B
:1013C000490A8A4661188A4201D2121B9246524645
:1013D000D2B25878390013004246FFF7A3F900282B
:1013E00018D1B3795B0604D54246B3699B1A9A4576
:1013F00030D853465902B9E7726A9246002A14D18E
:1014000071690129D2D95A699142CFD21800FFF7E8
:10141000ABFEBFE701230120F371CAE70023D05CD4
:10142000F85401339942FAD1A0E704235344984673
:1014300007F0D2FD53465B68002BB7D0424604E06C
:101440000832C01A1368002BB0D09842F8D2536803
:10145000C0189FE73100320002205B02FB182931DF
:101460002832591A88420BD219001143890707D133
:10147000515959518021043589008D42F8D1B8E77E
:10148000515D59558021013589008D42F8D1B0E771
:10149000F8B54746CE46067804000D00904680B564
:1014A000022E0BD0032E45D00227012E1AD0012385
:1014B00038002371C0BCB946B046F8BD036A090ABA
:1014C0009C466144FFF73AFC071EF0D16B00FF25F4
:1014D00042466D002B40E31830331A7092B2120A64
:1014E0005A70E4E74B08994689444B46590A036A07
:1014F0009C466144FFF722FC071ED8D14B46DB0512
:10150000DB0DE31830332E4233D00F2219784D46CD
:101510001140424612010A431A70236A01359C4663
:10152000690A200026716144FFF708FC00283DD0BD
:101530000700BCE7036AC9099C466144FFF7FEFB4C
:10154000071EB4D1FE21AD0049000D402B004146DD
:101550003033E318DA786519120912070A4391B299
:10156000090A30352A705970110C120E9970DA7010
:101570009DE742461A704D46236A01359C46690A2A
:10158000200026716144FFF7D9FB0028D0D1ED057A
:10159000ED0D65192B0042460F2130331B78120ADE
:1015A0008B430A401A4330352A7080E74346ED05E5
:1015B000ED0D1A09D2B26519F5E7C046F8B5037901
:1015C0000400002B0BD12378032B29D0002200210B
:1015D0006078FFF7D5F8431E9841C0B2F8BD070008
:1015E000C56A303701232A0039004078FFF7B4F884
:1015F00000283AD1226AA3692071AA1A9A42E2D23B
:10160000E678012E01D8DEE7A369ED182A00012350
:1016100039006078013EFFF79FF8012EF4D1D2E740
:101620006379012BD2D12500802230350021920030
:10163000280008F0B3FB0E4B0E4A2900E2520E4B75
:101640000E4A236385239B00E25022690433E25053
:10165000E2680433E250E36960785A1CE2620123D5
:10166000FFF77AF800236371B0E70120B6E7C046C0
:101670002E02000055AAFFFF525261417272416171
:10168000F0B54E464546DE465746E0B5894605006C
:1016900083B000291ED1C7684369002F34D10137B8
:1016A000FF2252009346023A3C00924601349C428B
:1016B0001FD3012F00D891E0022B1CD902242E78D1
:1016C000022E00D176E0032E57D0012E20D0012427
:1016D000644211E001290ED0436999420BD2FFF711
:1016E00043FD0400012806D96B69834204D84F46A4
:1016F000D6E7012CE3D80124200003B0F0BCBB46A0
:10170000B246A946A046F0BDBB42C9D80127C7E7EB
:1017100063089846A0444346590A2B6A28009C4611
:101720006144FFF70BFB0028D1D14346DB05DB0DFD
:10173000EB1830331B782800019301239C46E044CA
:101740004346590A2B6A9C466144FFF7F7FA002882
:10175000BDD14146CB05DB0DEB1830331B78019A28
:101760001B02134326423BD01B09002B3BD0012B0D
:10177000C1D0A74232D06B6998E72B6AE1099C4639
:1017800028006144FFF7DAFA0028A0D15346A200EE
:101790001A40110030316918CB788878AA18303295
:1017A00012781B060004034313434A7812021343C2
:1017B0001B01D9E72B6A210A9C4628006144FFF7E8
:1017C000BDFA002800D082E75B4662001A40AA18E2
:1017D00030325178137809020B43C6E700248BE7B7
:1017E0001B051B0DC1E76B69A34200D883E72100ED
:1017F0002800134AFFF74CFE002803D0012800D12F
:1018000065E778E74B46002B0DD0012B00D172E73E
:101810006B69994500D36EE7220049462800FFF71F
:1018200037FE0028EAD12B69EC605A1C00D163E72F
:101830000122013B2B616B7913436B715CE7C0465E
:10184000FFFFFF0FF0B557464546DE464E46E0B572
:10185000856807000C0083B0C180012D26D0066882
:101860007369AB4222D9002D57D0B278120190464D
:10187000914200D291E0FF22520093469D4215D240
:1018800033789946022B00D195E0032B5AD0012BD7
:1018900014D001200BE0756A002D41D0B2781201FE
:1018A0009046914200D278E0012DE4D1022003B0AD
:1018B000F0BCBB46B246A946A046F0BD6B089A46AE
:1018C000AA445346590A336A30009C466144FFF7E4
:1018D00035FA0028DDD15346DB05DB0DF318303334
:1018E0001B783000019301239C46E2445346590A79
:1018F000336A9C466144FFF721FA0028C9D151465A
:10190000CB05DB0DF61830363378019A1B021343F2
:101910004A462A4263D01D0932E03278032ABAD0FF
:101920000023FB603389A342C0D9726A230994461D
:1019300063443B610F210C403036640134190020B0
:101940007C61B4E7336AE9099C4630006144FFF7E3
:10195000F5F900289DD1FE22AB00520013401A0079
:101960003032B218D5789178F31830331B782D06C1
:1019700009040D431D4353781B021D432D012D09FE
:10198000012D93D93E687369AB4200D88EE7424679
:10199000A41AA4B2444500D370E7FD60023B023DA7
:1019A0009D421FD2B3785D43B36A9C4665442309C8
:1019B0005D193D61BEE7336A290A9C4630006144E7
:1019C000FFF7BCF9002800D063E75B466D001D40BF
:1019D00076193036737835781B021D43D0E71B0526
:1019E0001D0DCDE70025E2E7F8B557464546DE4632
:1019F0004E46E0B50B7805008A462F2B53D05C2B62
:101A000051D000245346AC601B781F2B54D9564646
:101A1000AB6932782F2A01D05C2A01D10136F8E770
:101A200020221A705A709A70DA701A715A719A716B
:101A3000DA711A725A729A723278202A19D90021F0
:101A40008C460831884602218A4603218B46711E46
:101A5000894661469C462B0000244546012798464E
:101A60000B002F2A55D05C2A53D02E2A2AD09D4213
:101A700006D80620F0BCBB46B246A946A046F8BD33
:101A800051B2002905DA59460C43B449803A8A5CC0
:101A9000E4B22221B24803E041780130002923D08A
:101AA0008A42F9D1E5E701239C460024E2445346EB
:101AB000AC601B781F2BAAD800212800FFF7C2FEBC
:101AC0006C61D7E7082DD4D108230B25A400E4B21C
:101AD0004A460137D25D202AC3D842466346A8460B
:101AE000F619150004221DE011004139192906D804
:101AF00051460C43E4B26146CA540133E8E7110091
:101B000061391929F7D80121203A0C43E4B2D2B245
:101B1000F1E742461900A84663461500F619002968
:101B2000A7D000221978E52901D1E0391970414682
:101B3000082900D105E103212140012901D10F31FC
:101B40000A430C210C40042C01D104390A43002122
:101B50002800DA72FFF776FE002800D0F7E02C6844
:101B60002F69B0463E0027000823FC6A9A46B4421B
:101B70000ED0302291463B79B944002B31D101235C
:101B8000320049467878FEF7CDFD002859D1FE6233
:101B90006A691478002C5FD050465346D17A0840C9
:101BA0000B4261D0EC880134A4B2002C54D02E69D1
:101BB000002E51D00F23234099460F23234242D0B9
:101BC0002F684B465A013B00EC803033FC6A9B186F
:101BD0006B61B442DCD0302291463B79B944002B92
:101BE000CDD00123220049467878FEF7B5FD0028C4
:101BF00027D13A6ABB693871A21A9A42BFD2FA78E1
:101C00009346012ABBD931002A004E465D468946DB
:101C1000934600E0BB69E418220001233100787884
:101C2000013DFEF799FD012DF4D14B46B1461E0052
:101C300049460123320078785D46FEF773FD00289F
:101C4000A5D0012016E7E96801362F682E6100292A
:101C500054D13B89A342B4D8AB69DB7A04205B073B
:101C600000D507E7052005E7AB691F78A74299D1A2
:101C700057785C78A74295D19F789478A74291D104
:101C8000D778DC78A7428DD117791C79A74289D102
:101C900057795C79A74285D197799C79A74200D082
:101CA00080E7D779DC79A74200D07BE7177A1C7AE6
:101CB000A74200D076E7577A5C7AA74200D071E756
:101CC000977A9C7AA74200D06CE7DC7A4646640794
:101CD00000D5CFE6C906C5D5D17E907E0902014365
:101CE00028680078032801D0A96092E6147D527D0F
:101CF0001202224312041143A9608AE6BB7822092A
:101D0000013B1A4200D05CE7012918D07B69994257
:101D100015D23800FFF728FA012810D9431C90D0BB
:101D20002F687B69984297D2E860023B023898425C
:101D30000AD2BB785843BB6AC6182E6141E702201D
:101D400098E6A400E4B2FCE600262E6139E7AB6910
:101D5000DB7A042800D08DE680E7C046FCCD001079
:101D6000ECCD0010F8B54546DE4657464E46436971
:101D7000E0B504000D00994200D398E0012914D980
:101D8000FF2326785B009946023B98460127022EE6
:101D900000D175E0032E38D0012E08D00120F0BC10
:101DA000BB46B246A946A046F8BD0220F7E76B083D
:101DB0009A46AA445346590A236A20009C46614425
:101DC000FEF7BCFF0028E9D15346DB05DB0DE31825
:101DD00030331B7820009B4601239C46E244534647
:101DE000590A236A9C466144FEF7A8FF0028D5D112
:101DF00053465A46DB05DB0DE31830331B781B02D4
:101E000013432E4255D01E091CE0236AE9099C4663
:101E100020006144FEF792FF0028BFD14246AB008C
:101E200013401A003032A218D6789178E318303374
:101E30001B78360609040E431E4353781B021E43CB
:101E400036013609002E32D0012EAED06369AB4286
:101E5000ABD9002229002000FFF71AFB00289ED1F1
:101E600023695A1C20D00133236163793B4363719A
:101E700063699E421BD235002678022E00D089E786
:101E8000236A290A9C4620006144FEF757FF002878
:101E900000D083E74A466B001340E31830335A788A
:101EA0001E7812021643CDE76369B342E3D80020DF
:101EB00075E71E05360DC5E7F0B5DE464E465746BA
:101EC0004546E0B5002185B00600FFF7BBFC041EC7
:101ED0000AD0042800D10724200005B0F0BCBB467E
:101EE000B246A946A046F0BD3369356898460F232F
:101EF0009A46EC6A44450ED02F002B793037002BE0
:101F000059D10123424639006878FEF70BFC0028BE
:101F100042D14346EB6273691B78E52B01D0002B5D
:101F200024D131693068FEF709FF041ED4D1202284
:101F30000021706907F032FF7369B269190011431B
:101F4000890700D0F1E0511C591A022900D8ECE0B1
:101F50001168196051685960117A1972517A597271
:101F6000927A9A72012233681A71B5E7F4880134C3
:101F7000A4B2002CAFD033699846002BABD05746A3
:101F800053462740234209D035687B012F00303764
:101F9000FF18F4807761ACE701249DE701239C469C
:101FA000E0444346F16835683361002928D12B8924
:101FB000A342EAD88FE70123220039006878FEF7B0
:101FC000CBFB0028E8D12A6AAB692871A21A9A4291
:101FD00097D2EA789146012A93D932002E004D46D5
:101FE000914600E0B369E4182200012339007078BB
:101FF000013DFEF7B1FB012DF4D135004E4680E7DF
:10200000AB782209013B1A42BFD1012921D06B696B
:1020100099421ED22800FFF7A7F80200019001287C
:1020200017D9431CB8D035686B69984213D2023A6D
:102030000292023B019AF260029A934200D885E034
:10204000AB785A431300AA6A9046984443463361DA
:102050009BE7022440E72800F168FFF711FB031E0D
:10206000019000D137E70128F3D0013394D03568CF
:102070002B79002B6DD12800802200219200303076
:1020800007F08CFE019B35689A1E6B690292023B39
:102090009A4200D390E01100A86AAA788046514382
:1020A00088444146E962002A3CD000230394BB46A1
:1020B0004446B14698462F000123303722003900AC
:1020C00068782B71FEF748FB002800D064E72A6A85
:1020D000AB692871A21A9A420ED2EE78012E01D86D
:1020E0000AE0AB69E4182200012339006878013E58
:1020F000FEF732FB012EF4D14B4647461D680137EF
:10210000EB6A5C1CFBB29846AB78EC624345D2D8D4
:102110004346A04642465F464E46D31A98466B69F0
:10212000039C023B4246EA6284E7117819705178B9
:10213000597091789970D178D97011791971517954
:10214000597191799971D179D97105E70023984630
:102150007CE7EB6A6878984630239B46AB4442465E
:1021600059462F3BFEF7F8FA002800D014E7424604
:10217000296AAB692871521A9A421BD2EA789146B1
:10218000012A17D942463100A0462E0014004D46C0
:10219000B9465F468B4600E0B369E418220001238C
:1021A00039007078013DFEF7D7FA012DF4D144468D
:1021B0004F465E4635685EE70021AA78884670E79C
:1021C00000B583B00B1E019000911AD00978303908
:1021D00008290FD910490B68002B01D00020187076
:1021E000019B002B15D000200B601870012A0AD02B
:1021F00003B000BD58783A28ECD10233009300298F
:10220000E8D00B20F4E70022694601A8FEF7D6FDCE
:10221000EEE700200B60EBE740080020F0B54746F2
:10222000CE4680B58DB0040017000191002868D01B
:1022300000231E2203603A4001A905A8FEF7BEFD57
:10224000051E05D028000DB0C0BCB946B046F0BD93
:102250001F233B409846019902AB05A80B93FFF75B
:10226000C3FB00280FD10A9E002E00D19BE01C2347
:102270003B420FD01122F37A1A4246D17B0700D499
:102280008DE00825DEE71C233B4201D004283ED028
:102290000500D7E7F37ADA0635D4BA0701D5DB07AC
:1022A00033D4082205983A4003D0424620231A43EB
:1022B0009046C36A2662E3614346A3710023E3713B
:1022C000F37EB27E1B0213430278032A05D1727D8E
:1022D000377D12023A43120413432361717F337F27
:1022E000B27F09021943F37F120411431B060B430B
:1022F000E36000232060A360A3616362C388A380BE
:10230000A0E709259EE704259CE707259AE705A88D
:10231000FFF7D2FD424608231A4390460A9E002842
:10232000B6D1FEF757FA83B21B0AF373030C33746A
:102330000023B073000E70740598F77EF372337744
:102340007377B377F377B27E03783F021743032B9B
:1023500005D1737D317D1B020B431B041F430023FA
:10236000B376F3763375737501330371002F9CD008
:10237000012F1AD043699F4217D2C36A3900994688
:10238000FFF7F0FC002883D10598013F4946C7605C
:10239000FEF7D4FC002800D07AE7059885E73B07D4
:1023A000BFD4059885E706254CE702254AE7C046D5
:1023B000F8B51D00002304000E0017002B60002854
:1023C0001ED00368002B1BD01A78002A18D08288F0
:1023D000D9880920914200D0F8BD5878FEF7A0F9BD
:1023E0000123034210D1E0790028F5D1A2791342EC
:1023F00008D02B003A0031002000FEF721FFEBE768
:102400000920E9E70720E7E70320E5E7F8B5041E20
:1024100060D00368002B5DD01A78002A5AD0D98882
:1024200082880925914201D02800F8BD5878FEF72E
:1024300077F901231D00054003424DD1A3799A0687
:1024400045D540261E420CD021002368A269587849
:1024500028310123FEF780F900283FD1A379B34347
:10246000A371E1692068FEF769FC071E01D0050031
:10247000DAE72022266AF37A1343F372E3683377AC
:10248000A3891B0A7377E389B377E37BF377236927
:10249000B3769AB21B0C120A33751B0AF276737567
:1024A000FEF798F9202283B21B0AB075F375030C6E
:1024B000000E33767076B774F774A379206893436F
:1024C000A37101230371FFF779F8002808D10023D5
:1024D0002360A9E70925A7E70325A5E70125A3E7C9
:1024E0000500A1E730B587B0041E019132D000226B
:1024F00001A902A8FEF762FC002803D00023236094
:1025000007B030BD029B2000236003AB0199A3619B
:10251000FFF76AFA002819D16369002B23D0DA7A11
:10252000D20615D5DA7E987E029912020243087807
:10253000032811D0A260CB8820000021A380FFF7E0
:1025400081F9042804D00028DAD0D7E70428D5D1AF
:102550000520D3E70920D3E71D7D5B7D1B022B43BC
:102560001B041A43E6E70299E5E7C046F0B5454685
:10257000DE4657464E46E0B587B004000D00019197
:10258000002800D1DEE00368002B00D1DAE01A78E1
:10259000002A00D1D6E082880920D988834691425A
:1025A00007D0584607B0F0BCBB46B246A946A04685
:1025B000F0BD5878FEF7B4F801231A0002409346A4
:1025C000034200D0F3E0002D00D1C1E0266903AB47
:1025D000A361002E00D18AE00F239A462568EF6A96
:1025E000B7420ED0302290462B79A844002B34D12C
:1025F0000123320041466878FEF794F800285CD148
:10260000EE6262691378002B71D0E52B08D02E2B77
:1026100006D0D37A3F2213400F2B01D0082B68D16C
:10262000E7880137BFB2002F61D02669002E5ED047
:10263000534652463B403A4273D02568E7802A0011
:102640005B013032EF6AD3186361B742D9D03022D0
:1026500090462B79A844002BCAD001233A0041466A
:102660006878FEF779F8002827D12A6AAB692871C3
:10267000BA1A9A42BCD2EA789146012AB8D942469F
:102680002100B0464C461600894600E0AB69FF18B1
:102690003A00012331006878013CFEF75DF8012C17
:1026A000F4D133004646984632000123414668780B
:1026B0004C46FEF737F80028A2D001239B460023A2
:1026C00023616EE7AB783A09013B1A4232D1012906
:1026D0003BD06B69994238D22800FEF745FD0128AE
:1026E00033D9431CE9D025686B69984262D3002333
:1026F000236120000199FEF75BFAE5880135ADB250
:10270000002DDCD02369002BD9D00F2216002E40DB
:102710002A4223D02068303076018019E58060613C
:102720003FE7E1680136256826610029CAD12B8977
:10273000BB42DCD92B003033E7806361002E00D030
:102740004DE7D6E709239B462BE702239B46B6E7D6
:1027500000212000FFF776F8834622E7E168013385
:1027600020682361002931D02A0917008378013BB2
:102770001F401A42CFD1012932D0436999422FD24A
:10278000FEF7F2FC030001282AD9421C2BD0206856
:102790004269934293D2E360023A023B934204D2ED
:1027A00087785F43836A9C4667442761B3E70323C6
:1027B0009B46F6E6E060023B023898420AD2AB6ADA
:1027C000AE789C46464366442661B3E70389AB4234
:1027D000A1D874E7002330352361E780656188E77D
:1027E00002239B46DDE601239B46DAE610B5012174
:1027F0001620FDF7AFFD01210920FDF7ABFD0121FA
:102800001020FDF7A7FD0D4901220D48FFF7D8FC68
:102810000C4B011E187003D00B4807F0CFFC10BD05
:102820000A4807F029FC0A4B0A4A19001431FF3103
:1028300008C20B338B42FBD1F1E7C046EC03011019
:10284000601B0020A2760220F00301102804011072
:10285000401600209C1D0020F0B5DE464546574638
:102860004E460023E0B58DB00390002004938846C7
:1028700001F068FF2F4D05A82900FFF733FE2E4C0D
:1028800028002100FEF7EAF8071E34D02B4B012563
:1028900099462B4B2B4E9A462B4B9B4615E0012815
:1028A0003AD0404600F078F81F230193274B5A4650
:1028B000009350215346002002F06AF96B1C9F429E
:1028C00019D30434AF4216D01D00494630002268A7
:1028D00006F0E4FA300004A9FEF7AEF80028DED1D5
:1028E000039800F059F8320000210020FDF774FF32
:1028F0006B1C9F42E5D2002001F024FF404600F00F
:102900004BF801211620FDF725FD0DB0F0BCBB46AC
:10291000B246A946A046F0BD404600F03DF81F2350
:1029200001930A4B4021009300205346084A02F0CD
:102930002FF9C3E7EC0301109C1D0020E0CD00102F
:10294000080400205C76022064040110FFFF0000F0
:102950005004011010B50F4B04001B780121082012
:10296000522B10D0FDF7F6FC09200021FDF7F2FCF8
:10297000200AFDF799FEE0B2FDF796FE012109203D
:10298000FDF7E8FC10BDFDF7E5FC00210920FDF78F
:10299000E1FCF0E71004002070B5254C2378522BA1
:1029A00000D070BD431EDBB20025062B31D9214B70
:1029B0001871032829D9A022F0215200598008203B
:1029C00000211A80FDF7C6FC00210920FDF7C2FC9A
:1029D0003620FDF769FE01210920FDF7BBFC2378B5
:1029E00001210820522B1CD0FDF7B4FC0920002146
:1029F000FDF7B0FC0020FDF757FE2800FDF754FE60
:102A000001210920FDF7A6FCCBE7A021F022490017
:102A1000D4E7094A5B00D55C064B18710328F4D94A
:102A2000C9E7FDF797FC00210920FDF793FCE4E7D7
:102A300010040020187602208004011070B50121D6
:102A400082B005000F20FDF785FCFA204000FDF75D
:102A50004DFE00210F20FDF77DFCFA204000FDF720
:102A600045FE01210F20FDF775FCFA204000FDF71F
:102A70003DFE6B469E1D0023002109203370FDF7AB
:102A800069FC00210820FDF765FCDC20FDF70CFE49
:102A90006B46DC1D220001233100F4480AF090F956
:102AA00001210920FDF756FC2378F14C0021082074
:102AB0002370522B01D100F000FCFDF74BFC0021EC
:102AC0000920FDF747FC2120FDF7EEFD012109203B
:102AD000FDF740FC00210820FDF73CFC0021092007
:102AE000FDF738FCC220FDF7DFFD01210920FDF7CD
:102AF00031FC237801210820522B00D1D6E3FDF7C9
:102B000029FC09200021FDF725FC0020FDF7CCFD64
:102B10003320FDF7C9FD01210920FDF71BFC002131
:102B20000820FDF717FC00210920FDF713FCC52044
:102B3000FDF7BAFD01210920FDF70CFC23780121E6
:102B40000820522B01D101F0E1F9FDF703FC092027
:102B50000021FDF7FFFB0020FDF7A6FD0020FDF79B
:102B6000A3FD01210920FDF7F5FB237801210820B1
:102B7000522B01D101F0C2F9FDF7ECFB0920002135
:102B8000FDF7E8FB0020FDF78FFD1E20FDF78CFD13
:102B900001210920FDF7DEFB237801210820522BBB
:102BA00001D101F0A3F9FDF7D5FB09200021FDF7C4
:102BB000D1FB0020FDF778FD8020FDF775FD012198
:102BC0000920FDF7C7FB00210820FDF7C3FB00210A
:102BD0000920FDF7BFFBB120FDF766FD01210920AB
:102BE000FDF7B8FB237801210820522B01D101F019
:102BF00075F9FDF7AFFB09200021FDF7ABFB0020C5
:102C0000FDF752FDB020FDF74FFD01210920FDF732
:102C1000A1FB00210820FDF79DFB00210920FDF705
:102C200099FB3620FDF740FD01210920FDF792FBBD
:102C3000237801210820522B01D101F047F9FDF73B
:102C400089FB09200021FDF785FB0020FDF72CFD05
:102C50002820FDF729FD01210920FDF77BFB00213C
:102C60000820FDF777FB00210920FDF773FBE0202A
:102C7000FDF71AFD01210920FDF76CFB23780121E6
:102C80000820522B01D101F019F9FDF763FB09204F
:102C90000021FDF75FFB0020FDF706FD0020FDF79A
:102CA00003FD01210920FDF755FB237801210820B0
:102CB000522B01D101F0FAF8FDF74CFB092000215D
:102CC000FDF748FB0020FDF7EFFC1320FDF7ECFCBF
:102CD00001210920FDF73EFB237801210820522B1A
:102CE00001D101F0DBF8FDF735FB09200021FDF7EC
:102CF00031FB0020FDF7D8FC1820FDF7D5FC0121A1
:102D00000920FDF727FB237801210820522B01D150
:102D100001F0BCF8FDF71EFB09200021FDF71AFBAE
:102D20000020FDF7C1FC0420FDF7BEFC01210920B5
:102D3000FDF710FB237801210820522B01D101F06F
:102D40009DF8FDF707FB09200021FDF703FB00209C
:102D5000FDF7AAFC0F20FDF7A7FC01210920FDF7D4
:102D6000F9FA237801210820522B01D101F07EF8D5
:102D7000FDF7F0FA09200021FDF7ECFA0020FDF73D
:102D800093FC0620FDF790FC01210920FDF7E2FAF3
:102D9000237801210820522B01D101F05FF8FDF7C3
:102DA000D9FA09200021FDF7D5FA0020FDF77CFCB7
:102DB0003A20FDF779FC01210920FDF7CBFA2378B1
:102DC00001210820522B01D101F040F8FDF7C2FA91
:102DD00009200021FDF7BEFA0020FDF765FC562012
:102DE000FDF762FC01210920FDF7B4FA23780121E7
:102DF0000820522B01D101F021F8FDF7ABFA092090
:102E00000021FDF7A7FA0020FDF74EFC4D20FDF74D
:102E10004BFC01210920FDF79DFA237801210820B0
:102E2000522B01D101F002F8FDF794FA092000219C
:102E3000FDF790FA0020FDF737FC0320FDF734FC86
:102E400001210920FDF786FA237801210820522B61
:102E500001D100F0E3FFFDF77DFA09200021FDF725
:102E600079FA0020FDF720FC04E0C0460000044091
:102E7000100400200A20FDF717FC01210920FDF7AE
:102E800069FA237801210820522B01D100F0BEFFFE
:102E9000FDF760FA09200021FDF75CFA0020FDF73C
:102EA00003FC0620FDF700FC01210920FDF752FA82
:102EB000237801210820522B01D100F09FFFFDF75C
:102EC00049FA09200021FDF745FA0020FDF7ECFB47
:102ED0003020FDF7E9FB01210920FDF73BFA2378BB
:102EE00001210820522B01D100F080FFFDF732FABA
:102EF00009200021FDF72EFA0020FDF7D5FB3E202A
:102F0000FDF7D2FB01210920FDF724FA23780121E6
:102F10000820522B01D100F061FFFDF71BFA0920B8
:102F20000021FDF717FA0020FDF7BEFB0F20FDF78B
:102F3000BBFB01210920FDF70DFA00210820FDF758
:102F400009FA00210920FDF705FAE120FDF7ACFBA5
:102F500001210920FDF7FEF9237801210820522BD9
:102F600001D100F033FFFDF7F5F909200021FDF74D
:102F7000F1F90020FDF798FB0020FDF795FB0121FA
:102F80000920FDF7E7F9237801210820522B01D110
:102F900000F014FFFDF7DEF909200021FDF7DAF952
:102FA0000020FDF781FB1320FDF77EFB01210920A6
:102FB000FDF7D0F9237801210820522B01D100F030
:102FC000F5FEFDF7C7F909200021FDF7C3F9002040
:102FD000FDF76AFB1820FDF767FB01210920FDF7CB
:102FE000B9F9237801210820522B01D100F0D6FE37
:102FF000FDF7B0F909200021FDF7ACF90020FDF73D
:1030000053FB0120FDF750FB01210920FDF7A2F938
:10301000237801210820522B01D100F0B7FEFDF7E3
:1030200099F909200021FDF795F90020FDF73CFBF7
:103030001120FDF739FB01210920FDF78BF92378D9
:1030400001210820522B01D100F098FEFDF782F9F2
:1030500009200021FDF77EF90020FDF725FB062061
:10306000FDF722FB01210920FDF774F923780121E6
:103070000820522B01D100F079FEFDF76BF90920F1
:103080000021FDF767F90020FDF70EFB3820FDF762
:103090000BFB01210920FDF75DF9237801210820B0
:1030A000522B01D100F05AFEFDF754F909200021FE
:1030B000FDF750F90020FDF7F7FA3420FDF7F4FA98
:1030C00001210920FDF746F9237801210820522B20
:1030D00001D100F03BFEFDF73DF909200021FDF78D
:1030E00039F90020FDF7E0FA4D20FDF7DDFA012166
:1030F0000920FDF72FF9237801210820522B01D157
:1031000000F01CFEFDF726F909200021FDF722F949
:103110000020FDF7C9FA0620FDF7C6FA01210920B3
:10312000FDF718F9237801210820522B01D100F076
:10313000FDFDFDF70FF909200021FDF70BF9002037
:10314000FDF7B2FA0D20FDF7AFFA01210920FDF7D6
:1031500001F9237801210820522B01D100F0DEFD76
:10316000FDF7F8F809200021FDF7F4F80020FDF73D
:103170009BFA0B20FDF798FA01210920FDF7EAF8E8
:10318000237801210820522B01D100F0BFFDFDF76B
:10319000E1F809200021FDF7DDF80020FDF784FAB1
:1031A0003120FDF781FA01210920FDF7D3F82378BA
:1031B00001210820522B01D100F0A0FDFDF7CAF833
:1031C00009200021FDF7C6F80020FDF76DFA372031
:1031D000FDF76AFA01210920FDF7BCF823780121E7
:1031E0000820522B01D100F081FDFDF7B3F8092032
:1031F0000021FDF7AFF80020FDF756FA0F20FDF78C
:1032000053FA01210920FDF7A5F800210820FDF758
:10321000A1F800210920FDF79DF83A20FDF744FAB6
:1032200001210920FDF796F8237801210820522B6F
:1032300001D100F053FDFDF78DF809200021FDF7C5
:1032400089F80020FDF730FA5520FDF72DFA01210D
:103250000920FDF77FF800210820FDF77BF8002109
:103260000920FDF777F81120FDF71EFA092001214A
:10327000FDF770F87820FDF739FA00210820FDF7F6
:1032800069F800210920FDF765F82920FDF70CFAFF
:1032900001210920FDF75EF82378522B01D100F0BF
:1032A000E6FC3220FDF722FA02B070BDFDF752F8BD
:1032B00000210920FDF74EF82AE4FDF74BF8002124
:1032C0000920FDF747F81120FDF7EEF9012109204B
:1032D000FDF740F86420FDF709FA00210820FDF70A
:1032E00039F800210920FDF735F83620FDF7DCF923
:1032F00001210920FDF72EF8237801210820522B07
:1033000001D100F06EFFFDF725F809200021FDF73F
:1033100021F80020FDF7C8F90020FDF7C5F90121CB
:103320000920FDF717F800210820FDF713F8002108
:103330000920FDF70FF83A20FDF7B6F90121092021
:10334000FDF708F8237801210820522B01D100F065
:1033500040FFFCF7FFFF09200021FCF7FBFF0020E6
:10336000FDF7A2F95520FDF79FF901210920FCF78F
:10337000F1FF00210820FCF7EDFF00210920FCF7F8
:10338000E9FFB220FDF790F901210920FCF7E2FFE7
:10339000237801210820522B01D100F012FFFCF705
:1033A000D9FF09200021FCF7D5FF0020FDF77CF9AB
:1033B0000C20FDF779F901210920FCF7CBFF2378D8
:1033C00001210820522B01D100F0F3FEFCF7C2FFCF
:1033D00009200021FCF7BEFF0020FDF765F90C2055
:1033E000FDF762F901210920FCF7B4FF23780121E0
:1033F0000820522B01D100F0D4FEFCF7ABFF0920CE
:103400000021FCF7A7FF0020FDF74EF90020FDF793
:103410004BF901210920FCF79DFF237801210820A9
:10342000522B01D100F0B5FEFCF794FF09200021DA
:10343000FCF790FF0020FDF737F93320FDF734F952
:1034400001210920FCF786FF237801210820522B57
:1034500001D100F096FEFCF77DFF09200021FCF76A
:1034600079FF0020FDF720F93320FDF71DF9012138
:103470000920FCF76FFF00210820FCF76BFF0021FB
:103480000920FCF767FFB720FDF70EF9012109209D
:10349000FCF760FF237801210820522B01D100F0B6
:1034A00068FEFCF757FF09200021FCF753FF0020BE
:1034B000FDF7FAF83520FDF7F7F801210920FCF7B0
:1034C00049FF00210820FCF745FF00210920FCF7F7
:1034D00041FFBB20FDF7E8F801210920FCF73AFF86
:1034E000237801210820522B01D100F03AFEFCF78D
:1034F00031FF09200021FCF72DFF0020FDF7D4F853
:103500002820FDF7D1F801210920FCF723FF002135
:103510000820FCF71FFF00210920FCF71BFFC0203B
:10352000FDF7C2F801210920FCF714FF23780121DF
:103530000820522B01D100F00CFEFCF70BFF0920F4
:103540000021FCF707FF0020FDF7AEF83C20FDF757
:10355000ABF801210920FCF7FDFE00210820FCF753
:10356000F9FE00210920FCF7F5FEC220FDF79CF8CA
:1035700001210920FCF7EEFE237801210820522BBF
:1035800001D100F0DEFDFCF7E5FE09200021FCF78B
:10359000E1FE0020FDF788F80120FDF785F8012104
:1035A0000920FCF7D7FE00210820FCF7D3FE0021FC
:1035B0000920FCF7CFFEC320FDF776F80121092092
:1035C000FCF7C8FE237801210820522B01D100F01E
:1035D000B0FDFCF7BFFE09200021FCF7BBFE002078
:1035E000FDF762F80B20FDF75FF801210920FCF7D9
:1035F000B1FE00210820FCF7ADFE00210920FCF7F8
:10360000A9FEC420FDF750F801210920FCF7A2FE15
:10361000237801210820522B01D100F082FDFCF714
:1036200099FE09200021FCF795FE0020FDF73CF8EB
:103630002020FDF739F801210920FCF78BFE00213D
:103640000820FCF787FE00210920FCF783FEC62036
:10365000FDF72AF801210920FCF77CFE23780121DF
:103660000820522B01D100F054FDFCF773FE092015
:103670000021FCF76FFE0020FDF716F80F20FDF784
:1036800013F801210920FCF765FE00210820FCF752
:1036900061FE00210920FCF75DFED020FDF704F853
:1036A00001210920FCF756FE237801210820522B26
:1036B00001D100F026FDFCF74DFE09200021FCF7AA
:1036C00049FE0020FCF7F0FFA420FCF7EDFF0121EC
:1036D0000920FCF73FFE237801210820522B01D15D
:1036E00000F007FDFCF736FE09200021FCF732FE52
:1036F0000020FCF7D9FFA120FCF7D6FF012109200B
:10370000FCF728FE00210820FCF724FE00210920F8
:10371000FCF720FEE020FCF7C7FF01210920FCF7A1
:1037200019FE237801210820522B01D100F0D9FC89
:10373000FCF710FE09200021FCF70CFE0020FCF72E
:10374000B3FFD020FCF7B0FF01210920FCF702FEF7
:10375000237801210820522B01D100F0BAFCFCF79C
:10376000F9FD09200021FCF7F5FD0020FCF79CFF86
:103770000120FCF799FF01210920FCF7EBFD2378DC
:1037800001210820522B01D100F09BFCFCF7E2FD47
:1037900009200021FCF7DEFD0020FCF785FF082052
:1037A000FCF782FF01210920FCF7D4FD23780121D9
:1037B0000820522B01D100F07CFCFCF7CBFD092046
:1037C0000021FCF7C7FD0020FCF76EFF0F20FCF77F
:1037D0006BFF01210920FCF7BDFD237801210820A2
:1037E000522B01D100F05DFCFCF7B4FD0920002153
:1037F000FCF7B0FD0020FCF757FF1120FCF754FF49
:1038000001210920FCF7A6FD237801210820522B75
:1038100001D100F03EFCFCF79DFD09200021FCF7E2
:1038200099FD0020FCF740FF2A20FCF73DFF012115
:103830000920FCF78FFD237801210820522B01D1AC
:1038400000F01FFCFCF786FD09200021FCF782FD3B
:103850000020FCF729FF3620FCF726FF0121092074
:10386000FCF778FD237801210820522B01D100F0CC
:1038700000FCFCF76FFD09200021FCF76BFD002028
:10388000FCF712FF5520FCF70FFF01210920FCF780
:1038900061FD237801210820522B00D1E2E3FCF7DF
:1038A00059FD09200021FCF755FD0020FCF7FCFE26
:1038B0004420FCF7F9FE01210920FCF74BFD237899
:1038C00001210820522B00D1C5E3FCF743FD09205C
:1038D0000021FCF73FFD0020FCF7E6FE3A20FCF754
:1038E000E3FE01210920FCF735FD237801210820A2
:1038F000522B00D1A8E3FCF72DFD09200021FCF795
:1039000029FD0020FCF7D0FE0B20FCF7CDFE0121A5
:103910000920FCF71FFD237801210820522B00D13C
:1039200086E3FCF717FD09200021FCF713FD0020BA
:10393000FCF7BAFE0620FCF7B7FE01210920FCF7D0
:1039400009FD237801210820522B00D169E3FCF7FF
:1039500001FD09200021FCF7FDFC0020FCF7A4FE7E
:103960001120FCF7A1FE01210920FCF7F3FC2378CC
:1039700001210820522B00D14CE3FCF7EBFC09207D
:103980000021FCF7E7FC0020FCF78EFE2020FCF76E
:103990008BFE01210920FCF7DDFC00210820FCF74B
:1039A000D9FC00210920FCF7D5FCE120FCF77CFEC6
:1039B00001210920FCF7CEFC237801210820522B9D
:1039C00000D120E3FCF7C6FC09200021FCF7C2FC73
:1039D0000020FCF769FED020FCF766FE01210920DB
:1039E000FCF7B8FC237801210820522B00D103E317
:1039F000FCF7B0FC09200021FCF7ACFC0020FCF730
:103A000053FE0220FCF750FE01210920FCF7A2FC26
:103A1000237801210820522B00D1E6E2FCF79AFC22
:103A200009200021FCF796FC0020FCF73DFE072052
:103A3000FCF73AFE01210920FCF78CFC23780121D8
:103A40000820522B00D1C9E2FCF784FC0920002198
:103A5000FCF780FC0020FCF727FE0A20FCF724FE80
:103A600001210920FCF776FC237801210820522B44
:103A700000D1ACE2FCF76EFC09200021FCF76AFCE7
:103A80000020FCF711FE0B20FCF70EFE012109209F
:103A9000FCF760FC237801210820522B00D18FE233
:103AA000FCF758FC09200021FCF754FC0020FCF72F
:103AB000FBFD1820FCF7F8FD01210920FCF74AFC6A
:103AC000237801210820522B00D172E2FCF742FC3E
:103AD00009200021FCF73EFC0020FCF7E5FD342026
:103AE000FCF7E2FD01210920FCF734FC23780121D9
:103AF0000820522B00D155E2FCF72CFC09200021B4
:103B0000FCF728FC0020FCF7CFFD4320FCF7CCFDA0
:103B100001210920FCF71EFC237801210820522BEB
:103B200000D138E2FCF716FC09200021FCF712FC5A
:103B30000020FCF7B9FD4A20FCF7B6FD0121092061
:103B4000FCF708FC237801210820522B00D11BE24E
:103B5000FCF700FC09200021FCF7FCFB0020FCF72F
:103B6000A3FD2B20FCF7A0FD01210920FCF7F2FBAF
:103B7000237801210820522B00D1FEE1FCF7EAFB5B
:103B800009200021FCF7E6FB0020FCF78DFD1B203F
:103B9000FCF78AFD01210920FCF7DCFB23780121D9
:103BA0000820522B00D1E1E1FCF7D4FB09200021D1
:103BB000FCF7D0FB0020FCF777FD1C20FCF774FD20
:103BC00001210920FCF7C6FB237801210820522B94
:103BD00000D1C4E1FCF7BEFB09200021FCF7BAFBD1
:103BE0000020FCF761FD2220FCF75EFD0121092089
:103BF000FCF7B0FB237801210820522B00D1A7E16C
:103C0000FCF7A8FB09200021FCF7A4FB0020FCF72F
:103C10004BFD1F20FCF748FD01210920FCF79AFB12
:103C200000210820FCF796FB00210920FCF792FBFD
:103C30005520FCF739FD01210920FCF78BFB237887
:103C400001210820522B00D17BE1FCF783FB0920E6
:103C50000021FCF77FFB0020FCF726FDB020FCF7DD
:103C600023FD01210920FCF775FBFFF706FB6B1E06
:103C7000DBB20026062B00D854E1F14B1D71032D59
:103C800000D84BE1A022F0215200598008200021E9
:103C90001A80FCF75FFB00210920FCF75BFB362054
:103CA000FCF702FD01210920FCF754FB23780121D8
:103CB0000820522B00D13DE1FCF74CFB09200021EC
:103CC000FCF748FB0020FCF7EFFC3000FCF7ECFCB5
:103CD00001210920FCF73EFBFFF7E3FAFCF73AFB72
:103CE00000210920FCF736FBFFF7AEFAFCF732FBA8
:103CF00000210920FCF72EFBFFF780FAFCF72AFBD6
:103D000000210920FCF726FBFFF761FAFCF722FBF4
:103D100000210920FCF71EFBFFF742FAFCF71AFB13
:103D200000210920FCF716FBFFF723FAFCF712FB32
:103D300000210920FCF70EFBFFF704FAFCF70AFB51
:103D400000210920FCF706FBFFF7E5F9FCF702FB71
:103D500000210920FCF7FEFAFFF7C6F9FCF7FAFA92
:103D600000210920FCF7F6FAFFF7A7F9FCF7F2FAB1
:103D700000210920FCF7EEFAFFF788F9FCF7EAFAD0
:103D800000210920FCF7E6FAFFF769F9FCF7E2FAEF
:103D900000210920FCF7DEFAFFF74AF9FCF7DAFA0E
:103DA00000210920FCF7D6FAFFF72BF9FCF7D2FA2D
:103DB00000210920FCF7CEFAFFF70CF9FCF7CAFA4C
:103DC00000210920FCF7C6FAFFF7EDF8FCF7C2FA6C
:103DD00000210920FCF7BEFAFFF7CEF8FCF7BAFA8B
:103DE00000210920FCF7B6FAFFF7A0F8FCF7B2FAB9
:103DF00000210920FCF7AEFAFFF781F8FCF7AAFAD8
:103E000000210920FCF7A6FAFFF762F8FCF7A2FAF6
:103E100000210920FCF79EFAFFF743F8FCF79AFA15
:103E200000210920FCF796FAFFF724F8FCF792FA34
:103E300000210920FCF78EFAFEF7FFFFFCF78AFA53
:103E400000210920FCF786FAFEF7E0FFFCF782FA72
:103E500000210920FCF77EFAFEF7C1FFFCF77AFA91
:103E600000210920FCF776FAFEF7A2FFFCF772FAB0
:103E700000210920FCF76EFAFEF783FFFCF76AFACF
:103E800000210920FCF766FAFEF764FFFCF762FAEE
:103E900000210920FCF75EFAFEF745FFFCF75AFA0D
:103EA00000210920FCF756FAFEF726FFFCF752FA2C
:103EB00000210920FCF74EFAFEF707FFFCF74AFA4B
:103EC00000210920FCF746FAFEF7E8FEFCF742FA6B
:103ED00000210920FCF73EFAFEF7BAFEFCF73AFA99
:103EE00000210920FCF736FAFEF78CFEFCF732FAC7
:103EF00000210920FCF72EFAFEF75EFEFCF72AFAF5
:103F000000210920FCF726FAFEF73FFEFCF722FA13
:103F100000210920FCF71EFAFEF720FEA021F02266
:103F20004900B2E6474A5B00D65C454B1D71032D44
:103F3000F4D9A7E6FCF70EFA00210920FCF70AFAEB
:103F4000C3E6FCF707FA00210920FCF703FA85E62F
:103F5000FCF700FA00210920FCF7FCF959E6FCF710
:103F6000F9F900210920FCF7F5F93CE6FCF7F2F934
:103F700000210920FCF7EEF91FE6FCF7EBF9002120
:103F80000920FCF7E7F902E6FCF7E4F90021092033
:103F9000FCF7E0F9E5E5FCF7DDF900210920FCF785
:103FA000D9F9C8E5FCF7D6F900210920FCF7D2F9C8
:103FB000ABE5FCF7CFF900210920FCF7CBF98EE542
:103FC000FCF7C8F900210920FCF7C4F971E5FCF7FA
:103FD000C1F900210920FCF7BDF954E5FCF7BAF955
:103FE00000210920FCF7B6F937E5FCF7B3F9002109
:103FF0000920FCF7AFF91AE5FCF7ACF9002109201C
:10400000FCF7A8F9FDE4FCF7A5F900210920FCF76D
:10401000A1F9E0E4FCF79EF900210920FCF79AF9E8
:10402000B4E4FCF797F900210920FCF793F997E431
:10403000FCF790F900210920FCF78CF97AE4C046DE
:104040001876022080040110FCF784F90021092071
:10405000FCF780F958E4FCF77DF900210920FCF712
:1040600079F93BE4FCF776F900210920FCF772F9B5
:104070001EE4FCF76FF900210920FCF76BF9FFF74C
:1040800001FCFCF767F900210920FCF763F9FFF751
:10409000E2FBFCF75FF900210920FCF75BF9FFF771
:1040A000C3FBFCF757F900210920FCF753F9FFF790
:1040B000A4FBFCF74FF900210920FCF74BF9FFF7AF
:1040C00085FBFCF747F900210920FCF743F9FFF7CE
:1040D00066FBFCF73FF900210920FCF73BF9FFF7ED
:1040E00047FBFCF737F900210920FCF733F9FFF70C
:1040F00028FBFCF72FF900210920FCF72BF9FFF72B
:10410000FAFAFCF727F900210920FCF723F9FFF759
:10411000DBFAFCF71FF900210920FCF71BF9FFF778
:10412000ADFAFCF717F900210920FCF713F9FFF7A6
:104130007FFAFCF70FF900210920FCF70BF9FFF7D4
:1041400051FAFCF707F900210920FCF703F9FFF702
:1041500023FAFCF7FFF800210920FCF7FBF8FFF732
:10416000F5F9FCF7F7F800210920FCF7F3F8FFF761
:10417000C7F9FCF7EFF800210920FCF7EBF8FFF78F
:1041800099F9FCF7E7F800210920FCF7E3F8FFF7BD
:104190006BF9FCF7DFF800210920FCF7DBF8FFF7EB
:1041A0004CF9FCF7D7F800210920FCF7D3F8FFF70A
:1041B0002DF9FCF7CFF800210920FCF7CBF8FFF729
:1041C0000EF9FCF7C7F800210920FCF7C3F8FFF748
:1041D000EFF8FCF7BFF800210920FCF7BBF8FFF768
:1041E000C1F8FCF7B7F800210920FCF7B3F8FFF796
:1041F00093F8C046F8B5CE464746804680B50820BD
:104200000F0000211C001500FCF7A4F80021092074
:10421000FCF7A0F82A20FCF747FA01210920FCF757
:1042200099F843468A4E1B0A9946337801210820A3
:10423000522B00D1D4E0FCF78DF809200021FCF7C7
:1042400089F80020FCF730FA4B46D8B2FCF72CFA7C
:1042500001210920FCF77EF8337801210820522B38
:1042600000D1EEE0FCF776F809200021FCF772F8A7
:104270000020FCF719FA4346D8B2FCF715FA013DC5
:1042800001210920FCF766F82B12984633780121AA
:104290000820522B00D1CDE0FCF75CF8092000216A
:1042A000FCF758F84346180EFCF7FEF94346D8B21F
:1042B000FCF7FAF901210920FCF74CF833780121C9
:1042C0000820ADB2522B00D1ADE0FCF743F8092035
:1042D0000021FCF73FF80020FCF7E6F9E8B2FCF714
:1042E000E3F901210920FCF735F800210820FCF74B
:1042F00031F800210920FCF72DF82B20FCF7D4F928
:1043000001210920FCF726F83378012108203D0A15
:10431000522B00D180E0FCF71DF809200021FCF7AA
:1043200019F80020FCF7C0F9E8B2FCF7BDF901214B
:104330000920FCF70FF8337801210820522B64D0B4
:10434000FCF708F809200021FCF704F80020FCF72E
:10435000ABF9F8B2FCF7A8F901210920FBF7FAFF45
:104360003378013C012108202512522B46D0FBF75F
:10437000F1FF09200021FBF7EDFF280EFCF794F96F
:10438000E8B2FCF791F901210920FBF7E3FF33784C
:1043900001210820A4B2522B29D0FBF7DBFF092012
:1043A0000021FBF7D7FF0020FCF77EF9E0B2FCF715
:1043B0007BF901210920FBF7CDFF00210820FBF745
:1043C000C9FF00210920FBF7C5FF2C20FCF76CF981
:1043D00001210920FBF7BEFFC0BCB946B046F8BDBD
:1043E000FBF7B8FF00210920FBF7B4FF2CE7FBF730
:1043F000B1FF00210920FBF7ADFFD7E7FBF7AAFFCC
:1044000000210920FBF7A6FFBAE7FBF7A3FF002175
:104410000920FBF79FFF9CE7FBF79CFF0021092089
:10442000FBF798FF80E7FBF795FF00210920FBF7DA
:1044300091FF53E7FBF78EFF00210920FBF78AFF6E
:1044400034E7FBF787FF00210920FBF783FF12E722
:1044500010040020F8B505000C0008200021FBF72F
:1044600079FF00210920FBF775FF2A20FCF71CF9D2
:1044700001210920FBF76EFF864E012133780820C9
:104480002F0A522B00D1CCE0FBF764FF092000215A
:10449000FBF760FF0020FCF707F9F8B2FCF704F91E
:1044A00001210920FBF756FF337801210820522B08
:1044B00000D1E7E0FBF74EFF09200021FBF74AFFA0
:1044C0000020FCF7F1F8E8B2FCF7EEF80121092032
:1044D000FBF740FF3378013D012108202F12522BBA
:1044E00000D1C8E0FBF736FF09200021FBF732FFBF
:1044F000380EFCF7D9F8F8B2FCF7D6F801210920FC
:10450000FBF728FF337801210820ADB2522B00D1F0
:10451000AAE0FBF71FFF09200021FBF71BFF00208B
:10452000FCF7C2F8E8B2FCF7BFF801210920FBF75D
:1045300011FF00210820FBF70DFF00210920FBF7E8
:1045400009FF2B20FCF7B0F801210920FBF702FF3F
:10455000337801210820250A522B00D17DE0FBF79A
:10456000F9FE09200021FBF7F5FE0020FCF79CF87E
:10457000E8B2FCF799F801210920FBF7EBFE33784C
:1045800001210820522B61D0FBF7E4FE0920002115
:10459000FBF7E0FE0020FCF787F8E0B2FCF784F8B8
:1045A00001210920FBF7D6FE3378013C01210820C8
:1045B0002512522B43D0FBF7CDFE09200021FBF73B
:1045C000C9FE280EFCF770F8E8B2FCF76DF801217F
:1045D0000920FBF7BFFE337801210820A4B2522B3B
:1045E00026D0FBF7B7FE09200021FBF7B3FE002021
:1045F000FCF75AF8E0B2FCF757F801210920FBF765
:10460000A9FE00210820FBF7A5FE00210920FBF7E9
:10461000A1FE2C20FCF748F801210920FBF79AFEA7
:10462000F8BDFBF797FE00210920FBF793FE34E766
:10463000FBF790FE00210920FBF78CFEDAE7FBF781
:1046400089FE00210920FBF785FEBDE7FBF782FE0E
:1046500000210920FBF77EFE9FE7FBF77BFE002190
:104660000920FBF777FE83E7FBF774FE00210920A2
:10467000FBF770FE56E7FBF76DFE00210920FBF704
:1046800069FE38E7FBF766FE00210920FBF762FEB2
:1046900019E7C04610040020104B10B514001A880A
:1046A000824202D35B888B4200D210BD0B00020015
:1046B000FFF7A0FD01210820FBF74CFE0021092097
:1046C000FBF748FE200AFBF7EFFFE0B2FBF7ECFF39
:1046D00001210920FBF73EFEE7E7C04618760220DD
:1046E000F0B5C64600B51C0006AB80460F001500AD
:1046F0001E88824201D98C4202D880BCB846F0BDE7
:104700002300FFF777FD43460121ED1A0820E41B43
:10471000FBF720FEADB200210920A4B26C43FBF7E9
:1047200019FE0025370AF6B23800FBF7BDFF013548
:104730003000FBF7B9FFAC42F6D101210920FBF7AD
:1047400009FEDAE7F8B5144B04001D88002D02D0ED
:104750005E88002E00D1F8BD33002A000021002021
:10476000FFF748FD01210820FBF7F4FD0021092097
:104770006E43FBF7EFFD0025270AE4B23800FBF794
:1047800093FF01352000FBF78FFFAE42F6D10121E8
:104790000920FBF7DFFDDEE718760220F0B54E4674
:1047A0004546DE4657461C00E0B5072687B0019314
:1047B00010AB0391198811AB8846198804900291B7
:1047C000A188203A0E40731E9E41CB08F3181600B4
:1047D000E08846435E4323689C4605936644002870
:1047E00061D0039B013B9BB29A46324B994600290C
:1047F00059D0049B0025581E534601339BB29B465B
:1048000080B21CE080232341471C134229D04B4631
:104810001A88BBB29A4209D34B465B885B4505D3E5
:104820005146029AFFF738FF019B9988073C634283
:104830005C410135ADB23619B8B28D4221D20724A0
:104840001D4B32782C409845DCD180232341471CF6
:104850001342EBD0174B1A889446BAB29445DCD277
:10486000E4E74B461A88BBB29A42DFD34B465B88DB
:104870005B45DBD351464246FFF70EFF019B99880B
:10488000D4E74B0700D00136019B0398DA885346E2
:104890001B1A02339BB29A4205D9534601339BB28D
:1048A0009A460029A5D107B0F0BCBB46B246A9463E
:1048B000A046F0BD18760220FFFF0000F0B5574675
:1048C0004E464546DE46E0B50F001E008446140005
:1048D0008FB00B9318AB1D8819ABA8460A921D78B0
:1048E000121A1AAB1B780291D11706955518F21BB4
:1048F0009946D3174D40D11859400891A445894194
:10490000D3179A1A5A400592564A019056481140B8
:1049100084460A0002216244BC4608000992B4455C
:10492000924108991040421E0C926A1A00214B468F
:104930008A46079504925D0052009BB2013D0392A6
:104940000D93534601335BB29A46069B012B06D169
:104950000321504604F018FB49B200294FD0434BC5
:10496000019A1B88934223D3404B029A5B8893425F
:104970001ED3002D1CDD0023019A99460D9BD21AEF
:104980009346029AD71ABFB24E4600245E44B6B28E
:10499000E11901344246300089B2A4B2FFF77CFE2F
:1049A000A542F5DC4B4601339BB299469D42EBDCB8
:1049B000059B039A934211DC0A9A019B9A424AD0C2
:1049C000049A0899521A099904928C4663449BB23E
:1049D00001935300079A03939A42B2DB0B9A029B0E
:1049E0009A4238D00799049A8C460C9962448C46B6
:1049F00063449BB20293530004920393A1E71B4BC1
:104A0000019A1B88934223D3184B029A5B889342E6
:104A10001ED3002D1CDD0023019A99460D9BD21A4E
:104A20009246029AD71ABFB24E4600245644B6B2F6
:104A3000E119013430000C4A89B2A4B2FFF72CFE10
:104A4000AC42F5DB4B4601339BB29946AB42EBDB04
:104A500000239A46ACE70FB0F0BCBB46B246A9466D
:104A6000A046F0BD0200FFFFFFFF00001876022005
:104A7000F0B54F464646D646C0B584B01F000CABD5
:104A80001B88140099460DAB1B7805009A462D4BE8
:104A90000E001A889846904225D85B88994222D801
:104AA000944210D853460293002301934B462200B0
:104AB00000930B00FFF702FF43461A88954212D875
:104AC0005B889E420FD89F420DD853460293002325
:104AD00001934B462A00009331003B002800FFF76A
:104AE000EDFE43461A88944226D843465B889F428F
:104AF00022D89E4212D853460293002301934B467C
:104B000022000093390033002000FFF7D7FE434610
:104B10001A88944210D85B88BB420DD395420BD8BB
:104B200053460293002301934B462A000093390019
:104B30003B002000FFF7C2FE04B0E0BCBA46B1461D
:104B4000A846F0BD18760220F0B583B008AC2788DF
:104B500009AC26780AAC2478A4460C4C25888542FA
:104B60000BD364888C4208D3954206D39C4204D36D
:104B7000002E04D00097FFF7B3FD03B0F0BD6446EC
:104B800000970194FFF774FFF7E7C04618760220FC
:104B9000F0B557464E46DE464546E0B585B01F00A7
:104BA0000EAB1B888A4603930FAB1B8881469B463E
:104BB0001F4B160019889846814231D358885045BA
:104BC0002ED31278002A2BD0BB8855469C464C46E3
:104BD0001DE0FB88EB18834201DD55464C468C42B4
:104BE0000CD885420AD85B460193039B29000093A9
:104BF00020003B00FFF7D2FDBB889C4672786444DE
:104C00000136A4B2002A0BD043461988588863465F
:104C1000E3188B42DDDDFB884C46ED18ADB2D9E7D9
:104C200005B0F0BCBB46B246A946A046F0BDC046A2
:104C300018760220F0B5C64600B5070084B03C499E
:104C40003C4808F011F80E2301AD6B442E00984645
:104C500000211020FBF77EFB3800FBF725FDC82064
:104C6000FBF748FD0020FBF731FD84B20020FBF785
:104C70002DFD2402A4B20443A4B201211020E408B3
:104C8000FBF768FB3480C8200236FBF733FD46454E
:104C9000DED12949274807F0E7FF2B886A8893422D
:104CA00001D92A806B802B88AA88934201D92A8057
:104CB000AB802B88EA88934201D92A80EB802B882D
:104CC0002A89934231D86B88AA88934201D96A8095
:104CD000AB806B88EA88934201D96A80EB806B884D
:104CE0002A8993421ED8AB88EA88934201D9AA80C8
:104CF000EB80AB882A89934201D9AA802B812B892A
:104D0000EA889A4200D9EB80AB8868880321C018F2
:104D1000EB88C01880B204F05FF980B204B080BCA8
:104D2000B846F0BD6A802B81DDE72B81CBE7C0461A
:104D3000C0C62D000000044080A81201F8B5D020A4
:104D4000FFF778FF04009020FFF774FF06000A20A9
:104D5000FBF7D0FCD020FFF76DFF05009020FFF798
:104D600069FF07000A20FBF7C5FCAC420CD2230008
:104D700031330020AB4206DBBE420DD2330031336B
:104D80000020BB4210DAF8BD2B003133A342F3DA26
:104D90000020AC42F7D1EAE73B003133B34203DAFB
:104DA0000020BE42EFD1E9E7044B6419F6197010F8
:104DB0006410D8809C800120E5E7C046247602205C
:104DC00010B52A4B82B01B78522B1BD0284B1A7E71
:104DD000062A0CD0002A21D1264A1A61264A5A6195
:104DE000152252425A81123A9A8102B010BD234ACA
:104DF0001A61234A5A61812292005A811622524234
:104E00009A81F2E71A4B1F4A1A611F4A5A616422BB
:104E1000FF325A81783AFF3A9A81E6E7032A0BD0AB
:104E2000052A13D1194A1A61194A5A61194A5A8135
:104E3000142252429A81D8E7174A1A61174A5A61D6
:104E4000162252425A81103A9A81CEE7144C200021
:104E5000FFF778FCF8231B0201933C210020114B43
:104E6000114A0094FFF794FEBFE7C04610040020EB
:104E70002476022010B3B73DEA060A3E239F07BE00
:104E80005950B83D6DABB9BDB6118F3D831808BE02
:104E90007826B43D050200005B25B83DD05F083E92
:104EA000FFFF0000F803002090040110F0B5D64683
:104EB0004F46464600240125C0B5704E84B03000F0
:104EC000FFF740FC6E4F05213B0028206D4A0194FE
:104ED0000096FFF75DFE192146206B4B6B4A01944B
:104EE0000096FFF755FE6E233C223C210A200295D6
:104EF00001950096FFF728FE6E233C223C210A20F4
:104F0000029501940094FFF71FFE3B004B211420F3
:104F10005F4A01940096FFF73BFE6E237D223C2101
:104F20004B20029501950096FFF70EFE6E237D2221
:104F30003C214B20029501940094FFF705FE3B00B5
:104F40004B215520534A01940096FFF721FE524B06
:104F5000B922984600933C216E2387200295019543
:104F6000FFF7F2FD6E23B9223C21872002950194C0
:104F70000094FFF7E9FD43464B21009391203B004D
:104F8000464A0194FFF704FE6E23F5223C21C3201C
:104F9000029501950096FFF7D7FD6E23F5223C217F
:104FA000C320029501940094FFF7CEFD3B004B21F6
:104FB000CD203B4A01940096FFF7EAFD9B235B005E
:104FC0009946323B9A464A4650463C210295019505
:104FD0000096963BFFF7B8FD4A4650466E233C21AB
:104FE000029501940094FFF7AFFD87203B004B2111
:104FF0002C4A019400964000FFF7CAFDD723962261
:105000008C210A20029501950096FFF79DFDD7237C
:1050100096228C210A20029501940094FFF794FDBA
:10502000214FA5213B003220204A01940096FFF732
:10503000AFFD43464A4600938C21D723AA20029510
:105040000195FFF781FD4A46D7238C21AA200295BE
:1050500001940094FFF778FD4346A5210093B42006
:105060003B00134A0194FFF793FD124B1D7004B0EF
:10507000E0BCBA46B146A846F0BDC046FFFF0000FE
:1050800000040020D4040110F8030020E8040110FB
:10509000FC04011000050110FF07000004050110C9
:1050A000080501100C05011008040020100501106E
:1050B000180501109E76022030B585B0082809D069
:1050C0000D2835D012284AD017281AD01C285DD0B8
:1050D00005B030BD01230024394D3B223C21029311
:1050E000019302306C330095FFF72EFD354B4B21B9
:1050F0001420354A01940095FFF74AFD334B1C708C
:10510000E6E7012300242E4DF4223C210293019373
:10511000AC306C330095FFF717FD2A4B4B21CD20A7
:105120002B4A01940095FFF733FD2A4B1C70CFE703
:1051300001230024224D7C223C21029301933E3026
:105140006C330095FFF700FD1E4B4B215520224A82
:1051500001940095FFF71CFD204B1C70B8E701235C
:105160000024174DB8223C210293019375306C3313
:105170000095FFF7E9FC134B4B219120184A01944D
:105180000095FFF705FD174B1C70A1E701233622A0
:105190000B4D3C2102930193FF326C33E8300095B4
:1051A000FFF7D2FC00248720064B4B210E4A0194C6
:1051B00000954000FFF7ECFC0C4B1C7088E7C046E4
:1051C000FFFF000000040020FC0401109D76022077
:1051D000080501109F76022000050110A17602202B
:1051E000040501109E7602200C050110A076022015
:1051F000F0B54646D6464F46C0B5964D0C002E78C3
:1052000084B086422BD0287008283ED00D285BD071
:10521000122800D1FEE0172800D0D6E08E4F3B7850
:105220009846002B18D101339946029301938B4B7A
:10523000F4229A463C210093AC306D23FFF784FCA6
:105240004346019353464B210093CD20844B854A1E
:10525000FFF79EFC4B463B703000FFF72DFF002C04
:105260000BD0814D2C78002C4DD0FBF763F904B0A6
:10527000E0BCBA46B146A846F0BD7C4E3378002B60
:1052800070D02878FBF780F9F1E7794F3B789846A2
:10529000002BE1D101339946029301936F4B3B22DE
:1052A0009A463C21009302306D23FFF74DFC4346A4
:1052B000019353464B2100931420694B6D4AFFF72D
:1052C00067FC4B463B70C7E76B4F3B789846002B1B
:1052D000C2D10133994602930193604B7C229A46D6
:1052E0003C2100933E306D23FFF72EFC4346019393
:1052F00053464B2100935520594B604AFFF748FC19
:105300004B463B70A8E7554B0126362298468C2128
:10531000AA200093FF32D62302960196FFF714FCD1
:105320004346574FA521B420564A009301943B00B1
:10533000FFF72EFC544B952298468C210A200093AF
:105340000296D6230196FFF7FFFB4346A521009363
:1053500032203B004D4A0194FFF71AFC434B2E705C
:105360001C7082E701273D4B9522994600938C21C2
:10537000D6230A2002970197FFF7E6FB404BA521B1
:1053800098464B4632200093404A43460194FFF72B
:10539000FFFB3D4B3622994600938C21D623AA2051
:1053A00002970197FF32FFF7CFFB4B46A5210093F1
:1053B000B4204346334A0194FFF7EAFB2A4B28788E
:1053C0001C703770FBF7E0F851E71C2800D043E76A
:1053D0002F4F3B789846002B00D03DE73622013313
:1053E0009946029301931D4B3C219A460093FF324C
:1053F0006D23E830FFF7A8FB43468720019353460F
:105400004B210093234A164B4000FFF7C1FB4B464C
:105410003B7021E7204F3B789846002B00D01BE7DC
:1054200001339946029301930C4BB8229A463C21D2
:10543000009375306D23FFF787FB43460193534676
:105440004B2100939120064B144AFFF7A1FB4B46DA
:105450003B7001E7110400209F760220FF07000047
:105460000004002008050110A3760220A776022080
:105470009D760220FC040110A17602200005011097
:105480000804002018050110FFFF0000100501109E
:10549000A07602200C0501109E7602200405011062
:1054A000F8B5CE464746112080B5FAF75DFF0028D3
:1054B00000D080E0FFF742FC002838D1994F9A4E87
:1054C0003B8835889846994C237A7F2B03D8C02394
:1054D000237263682360A84525D973887A889A4225
:1054E00021D92A000B3A92B2302A04D819003D394A
:1054F000302900D8E4E029004C39302900D9ABE04C
:1055000019003D39302900D806E12900C439302975
:1055100000D9E6E019003D39302900D9D5E0002155
:105520001720FFF765FEC0BCB946B046F8BD804BFA
:105530007E4C1B78522B4FD0237E032B76D0002B32
:1055400048D1784F3B881800984604F0AFFB051C03
:10555000A08804F0ABFB216904F09BFB011C281C14
:1055600004F07DFB051C0A23E05E04F09FFB011C98
:10557000281C04F074FB04F0BBFB6B4E85B2358035
:10558000788804F093FB8146E08804F08FFB616922
:1055900004F07FFB011C484604F061FB81460C23AC
:1055A000E05E04F083FB011C484604F058FB04F065
:1055B0009FFB708088E708215C4B5956187A0029B8
:1055C00004DB00221A60013A5A60ACE77F220240F5
:1055D0001A72A8E7052B4ED1E08804F067FB216919
:1055E00004F057FB051C0A23E05E04F05FFB011C7E
:1055F000281C04F037FB04F07BFB4B4E85B2358052
:10560000A08804F053FB616904F043FB071C0C23E2
:10561000E05E04F04BFB011C381C04F023FB04F09B
:1056200067FB404F70803B8898464DE7A08804F0A8
:105630003DFB216904F02DFB051C0A23E05E04F00C
:1056400035FB011C281C04F00DFB04F051FB364E09
:1056500085B23580E088D4E729008839302900D91F
:1056600053E719003D39302900D94EE700211220B7
:10567000FFF7BEFD57E72B4F3B881800984604F014
:1056800015FB051CE08804F011FB216904F001FB07
:10569000011C281C04F0E3FA051C0A23E05E04F058
:1056A00005FB011C281C04F0DAFA04F021FB1E4E55
:1056B00085B23580788804F0F9FA8146A08864E7DD
:1056C00000210820FFF794FD2DE78A2A16D88D3B8C
:1056D000492B00D927E7174B00211878FFF788FDE1
:1056E00021E7A91FFF393029EFD819003D393029AA
:1056F000EBD800211C20FFF77BFD14E7AB3D8A2D82
:1057000000D910E78D3B492B00D90CE7094B01214B
:105710001878FFF76DFD06E700210D20FFF768FD03
:1057200001E7C04618760220407602202476022047
:10573000100400201104002070B505000121102084
:10574000FAF708FE054CD0202576FFF773FAA08003
:105750009020FFF76FFAE08070BDC04624760220EB
:1057600070B505000E0016200121FAF7F3FDFF20A9
:10577000FAF79AFF00211620FAF7ECFD1B4C02E025
:10578000013C002C25D0FF20FAF78EFFFF28F7D12F
:1057900040202843FAF788FF0020FAF785FF002011
:1057A000FAF782FF0020FAF77FFF0020FAF77CFF6C
:1057B0003000FAF779FF0C2D14D0202403E0013CCF
:1057C000E4B2002C04D0FF20FAF76EFF0306F6D4F3
:1057D00070BD01211620FAF7BDFDFF20FAF764FF26
:1057E000FF20F5E7FF20FAF75FFFE6E7FFFFFF0086
:1057F00010B5FAF759FF10BD7047C0467047C04654
:1058000010B5074C02E0013C002C06D0FF20FAF74F
:105810004BFFFF28F7D1002010BD0120FCE7C04658
:10582000FFFFFF00F8B506000D001620012117004C
:10583000FAF790FDFF20FAF737FF00211620FAF75C
:1058400089FD1D4C02E0013C002C27D0FF20FAF717
:105850002BFFFF28F7D140203043FAF725FF280E11
:10586000FAF722FF280CC0B2FAF71EFF280AC0B2CE
:10587000FAF71AFFE8B2FAF717FF3800FAF714FF41
:105880000C2E14D0202403E0013CE4B2002C04D000
:10589000FF20FAF709FF0306F6D4F8BD0121162010
:1058A000FAF758FDFF20FAF7FFFEFF20F5E7FF208B
:1058B000FAF7FAFEE6E7C046FFFFFF0070B50121E8
:1058C00005000920FFF74CFF061E09D00121162014
:1058D000FAF740FDFF20FAF7E7FE0126300070BD21
:1058E000114C03E0002CF1D0013CA4B2FF20FAF7E8
:1058F000DBFEFE28F6D1002CE8D02C001034FF206F
:10590000FAF7D2FE28700135AC42F8D1FF20FAF741
:10591000CBFEFF20FAF7C8FE01211620FAF71AFD88
:10592000FF20FAF7C1FED9E7FFFF000000B585B000
:105930006846FFF7C3FF00282ED16B463F221B7835
:105940009343402B1FD06B46187ADB7980099B006C
:10595000C0186B46C0229B7912019B021340013094
:10596000C0186B465A790F2313406A46927AD209BF
:105970009B186A46517A062249000A409B18073B49
:10598000984005B000BD6B46187A5B7A000201337F
:10599000C01880B28002F4E70020F2E7F0B5CE46EE
:1059A000474680B50121162083B0FAF7D3FC0A24BC
:1059B000013CFF20A4B2FAF777FE002CF8D11525A0
:1059C00003E0013DADB2002D2DD095210020FFF761
:1059D000C7FE040006000128F3D1D52100235B4F48
:1059E0008722082049003B70FFF71CFF012831D1B6
:1059F00001AB98461C0002AEFF20FAF755FE20705E
:105A00000134B442F8D16B469B79012B54D001216B
:105A10001620FAF79FFCFF20FAF746FE3C78634217
:105A20005C41E4B20EE0494F3D7001211620FAF7C7
:105A300091FCFF20FAF738FE3B78002B08D1002CB0
:105A400000D1AA24200003B0C0BCB946B046F0BDC6
:105A50000024F7E701213720FFF782FE01212920EA
:105A6000FFF77EFE012813D93E70394D394E03E011
:105A7000013DADB2B54244D001210120FFF770FED7
:105A8000041EF5D10024002D3BD100233B70CCE750
:105A900002232F4D2F4E3B7003E0013DADB2B542C6
:105AA0002FD001213720FFF75BFE01212920FFF7CE
:105AB00057FE041EF1D1E5E76B46DB79AA2BA6D190
:105AC000244B234D994603E0013DADB24D4522D014
:105AD00001213720FFF744FE802101222920C9053A
